:100000000C9435000C945D000C945D000C945D0024
:100010000C945D000C945D000C945D000C945D00EC
:100020000C945D000C945D000C945D000C945D00DC
:100030000C945D000C945D000C945D000C945D00CC
:100040000C94EE010C945D000C94BC010C94960190
:100050000C945D000C945D000C945D000C945D00AC
:100060000C945D000C945D00EA0211241FBECFEFDA
:10007000D8E0DEBFCDBF11E0A0E0B1E0E8E4F6E0FB
:1000800002C005900D92A432B107D9F721E0A4E295
:10009000B1E001C01D92AA3CB207E1F710E0C5E350
:1000A000D0E004C02197FE010E941703C433D1079A
:1000B000C9F70E9438020C9422030C940000FC0142
:1000C000538D448D252F30E0842F90E0821B930BBD
:1000D000541710F0CF96089501970895FC01918D63
:1000E000828D981761F0828DDF01A80FB11D5D969A
:1000F0008C91928D9F5F9F73928F90E008958FEF08
:100100009FEF0895FC01918D828D981731F0828DBB
:10011000E80FF11D858D90E008958FEF9FEF089512
:10012000FC01918D228D892F90E0805C9F4F821B76
:1001300091098F73992708958DE291E00E949000B4
:1001400021E0892B09F420E0822F0895FC01848DA1
:10015000DF01A80FB11DA35ABF4F2C91848D90E0F1
:1001600001968F739927848FA689B7892C93A089CC
:10017000B1898C91837080648C93938D848D981356
:1001800006C00288F389E02D80818F7D80830895E9
:10019000EF92FF920F931F93CF93DF93EC0181E0D7
:1001A000888F9B8D8C8D981305C0E889F989808193
:1001B00085FD26C0F62E0B8D10E00F5F1F4F0F73CD
:1001C0001127E02E8C8DE8120CC00FB607FCFACF79
:1001D000E889F989808185FFF5CFCE010E94A600CC
:1001E000F1CF8B8DFE01E80FF11DE35AFF4FF08236
:1001F0009FB7F8940B8FEA89FB89808180620AC0DF
:100200009FB7F894EE89FF896083E889F989808136
:100210008370806480839FBF81E090E0DF91CF9105
:100220001F910F91FF90EF900895CF93DF93EC0112
:10023000888D8823C9F0EA89FB89808185FD05C006
:10024000A889B9898C9186FD0FC00FB607FCF5CF40
:10025000808185FFF2CFA889B9898C9185FFEDCF88
:10026000CE010E94A600E7CFDF91CF91089580E0F4
:1002700090E0892B29F00E949C0081110C940000D1
:100280000895CF92DF92EF92FF920F931F93CF9337
:10029000DF936C017A018B01C0E0D0E0CE15DF0561
:1002A00081F0D8016D918D01D601ED91FC91019005
:1002B000F081E02DC6010995892B11F02196EECF32
:1002C0007E01C701DF91CF911F910F91FF90EF90B9
:1002D000DF90CF900895089580E090E008953FB7B3
:1002E000F8948091290190912A01A0912B01B0915D
:1002F0002C0126B5A89B05C02F3F19F00196A11D22
:10030000B11D3FBFBA2FA92F982F8827820F911DAB
:10031000A11DB11DBC01CD0142E0660F771F881FF2
:10032000991F4A95D1F708950E941D031F920F92BD
:100330000FB60F9211242F933F934F935F936F93B8
:100340007F938F939F93AF93BF93EF93FF938DE230
:1003500091E00E94A600FF91EF91BF91AF919F9114
:100360008F917F916F915F914F913F912F910F905E
:100370000FBE0F901F9018951F920F920FB60F92FD
:1003800011242F938F939F93EF93FF93E0913D015F
:10039000F0913E018081E0914301F091440182FDA2
:1003A00012C09081809146018F5F8F732091470129
:1003B000821751F0E0914601F0E0E35DFE4F958F2A
:1003C0008093460101C08081FF91EF919F918F91B1
:1003D0002F910F900FBE0F901F9018951F920F92A4
:1003E0000FB60F9211242F933F938F939F93AF9348
:1003F000BF938091250190912601A0912701B09192
:1004000028013091240123E0230F2D3720F4019699
:10041000A11DB11D05C026E8230F0296A11DB11D27
:10042000209324018093250190932601A093270116
:10043000B09328018091290190912A01A0912B016C
:10044000B0912C010196A11DB11D809329019093BB
:100450002A01A0932B01B0932C01BF91AF919F91E2
:100460008F913F912F910F900FBE0F901F90189575
:10047000789484B5826084BD84B5816084BD85B57F
:10048000826085BD85B5816085BD80916E0081608B
:1004900080936E0010928100809181008260809331
:1004A0008100809181008160809381008091800033
:1004B0008160809380008091B10084608093B1005E
:1004C0008091B00081608093B00080917A00846058
:1004D00080937A0080917A00826080937A00809184
:1004E0007A00816080937A0080917A00806880939E
:1004F0007A001092C100E0913D01F0913E0182E04E
:100500008083E0913901F0913A011082E0913B0142
:10051000F0913C0180E1808310924501E09141011E
:10052000F091420186E08083E0913F01F09140012B
:10053000808180618083E0913F01F0914001808162
:1005400088608083E0913F01F09140018081806864
:100550008083E0913F01F091400180818F7D808315
:100560000E946F016B017C0188EE882E83E0982E3B
:10057000A12CB12C0E946F01DC01CB018C199D09CB
:10058000AE09BF09883E9340A105B10598F321E06B
:10059000821A9108A108B10888EEC80E83E0D81E1F
:1005A000E11CF11C81149104A104B10419F74DE080
:1005B00050E062E171E08DE291E00E94410142E091
:1005C00050E060E271E08DE291E00E9441010E9402
:1005D0003701C6CFEDE2F1E01382128288EE93E09C
:1005E000A0E0B0E084839583A683B78384E091E0A4
:1005F0009183808385EC90E09587848784EC90E0FC
:100600009787868780EC90E0918B808B81EC90E0DF
:10061000938B828B82EC90E0958B848B86EC90E0C0
:10062000978B868B118E128E138E148E0895EE0F7B
:10063000FF1F0590F491E02D099481E090E0F8947B
:080640000C942203F894FFCF93
:1006480000000000C80041015F00150190006E0025
:10065800820052756E6E696E6720616761696E000F
:040668000D0A000077
:00000001FF
